{
  "_format": "hh-sol-artifact-1",
  "contractName": "ElDigitalAsset",
  "sourceName": "contracts/NFT.sol",
  "abi": [
    {
      "inputs": [
        {
          "internalType": "address",
          "name": "marketplaceAddress",
          "type": "address"
        }
      ],
      "stateMutability": "nonpayable",
      "type": "constructor"
    },
    {
      "anonymous": false,
      "inputs": [
        {
          "indexed": true,
          "internalType": "address",
          "name": "owner",
          "type": "address"
        },
        {
          "indexed": true,
          "internalType": "address",
          "name": "approved",
          "type": "address"
        },
        {
          "indexed": true,
          "internalType": "uint256",
          "name": "tokenId",
          "type": "uint256"
        }
      ],
      "name": "Approval",
      "type": "event"
    },
    {
      "anonymous": false,
      "inputs": [
        {
          "indexed": true,
          "internalType": "address",
          "name": "owner",
          "type": "address"
        },
        {
          "indexed": true,
          "internalType": "address",
          "name": "operator",
          "type": "address"
        },
        {
          "indexed": false,
          "internalType": "bool",
          "name": "approved",
          "type": "bool"
        }
      ],
      "name": "ApprovalForAll",
      "type": "event"
    },
    {
      "anonymous": false,
      "inputs": [
        {
          "indexed": false,
          "internalType": "address",
          "name": "owner",
          "type": "address"
        },
        {
          "indexed": false,
          "internalType": "uint256",
          "name": "tokenId",
          "type": "uint256"
        },
        {
          "indexed": false,
          "internalType": "address",
          "name": "marketPlaceAddress",
          "type": "address"
        }
      ],
      "name": "TokenCreated",
      "type": "event"
    },
    {
      "anonymous": false,
      "inputs": [
        {
          "indexed": true,
          "internalType": "address",
          "name": "from",
          "type": "address"
        },
        {
          "indexed": true,
          "internalType": "address",
          "name": "to",
          "type": "address"
        },
        {
          "indexed": true,
          "internalType": "uint256",
          "name": "tokenId",
          "type": "uint256"
        }
      ],
      "name": "Transfer",
      "type": "event"
    },
    {
      "inputs": [
        {
          "internalType": "address",
          "name": "to",
          "type": "address"
        },
        {
          "internalType": "uint256",
          "name": "tokenId",
          "type": "uint256"
        }
      ],
      "name": "approve",
      "outputs": [],
      "stateMutability": "nonpayable",
      "type": "function"
    },
    {
      "inputs": [
        {
          "internalType": "address",
          "name": "owner",
          "type": "address"
        }
      ],
      "name": "balanceOf",
      "outputs": [
        {
          "internalType": "uint256",
          "name": "",
          "type": "uint256"
        }
      ],
      "stateMutability": "view",
      "type": "function"
    },
    {
      "inputs": [
        {
          "internalType": "string",
          "name": "tokenURI",
          "type": "string"
        }
      ],
      "name": "createToken",
      "outputs": [
        {
          "internalType": "uint256",
          "name": "",
          "type": "uint256"
        }
      ],
      "stateMutability": "payable",
      "type": "function"
    },
    {
      "inputs": [
        {
          "internalType": "uint256",
          "name": "tokenId",
          "type": "uint256"
        }
      ],
      "name": "getApproved",
      "outputs": [
        {
          "internalType": "address",
          "name": "",
          "type": "address"
        }
      ],
      "stateMutability": "view",
      "type": "function"
    },
    {
      "inputs": [],
      "name": "getTokenCount",
      "outputs": [
        {
          "internalType": "uint256",
          "name": "",
          "type": "uint256"
        }
      ],
      "stateMutability": "view",
      "type": "function"
    },
    {
      "inputs": [
        {
          "internalType": "address",
          "name": "owner",
          "type": "address"
        },
        {
          "internalType": "address",
          "name": "operator",
          "type": "address"
        }
      ],
      "name": "isApprovedForAll",
      "outputs": [
        {
          "internalType": "bool",
          "name": "",
          "type": "bool"
        }
      ],
      "stateMutability": "view",
      "type": "function"
    },
    {
      "inputs": [],
      "name": "name",
      "outputs": [
        {
          "internalType": "string",
          "name": "",
          "type": "string"
        }
      ],
      "stateMutability": "view",
      "type": "function"
    },
    {
      "inputs": [
        {
          "internalType": "uint256",
          "name": "tokenId",
          "type": "uint256"
        }
      ],
      "name": "ownerOf",
      "outputs": [
        {
          "internalType": "address",
          "name": "",
          "type": "address"
        }
      ],
      "stateMutability": "view",
      "type": "function"
    },
    {
      "inputs": [
        {
          "internalType": "address",
          "name": "from",
          "type": "address"
        },
        {
          "internalType": "address",
          "name": "to",
          "type": "address"
        },
        {
          "internalType": "uint256",
          "name": "tokenId",
          "type": "uint256"
        }
      ],
      "name": "safeTransferFrom",
      "outputs": [],
      "stateMutability": "nonpayable",
      "type": "function"
    },
    {
      "inputs": [
        {
          "internalType": "address",
          "name": "from",
          "type": "address"
        },
        {
          "internalType": "address",
          "name": "to",
          "type": "address"
        },
        {
          "internalType": "uint256",
          "name": "tokenId",
          "type": "uint256"
        },
        {
          "internalType": "bytes",
          "name": "_data",
          "type": "bytes"
        }
      ],
      "name": "safeTransferFrom",
      "outputs": [],
      "stateMutability": "nonpayable",
      "type": "function"
    },
    {
      "inputs": [
        {
          "internalType": "address",
          "name": "operator",
          "type": "address"
        },
        {
          "internalType": "bool",
          "name": "approved",
          "type": "bool"
        }
      ],
      "name": "setApprovalForAll",
      "outputs": [],
      "stateMutability": "nonpayable",
      "type": "function"
    },
    {
      "inputs": [
        {
          "internalType": "bytes4",
          "name": "interfaceId",
          "type": "bytes4"
        }
      ],
      "name": "supportsInterface",
      "outputs": [
        {
          "internalType": "bool",
          "name": "",
          "type": "bool"
        }
      ],
      "stateMutability": "view",
      "type": "function"
    },
    {
      "inputs": [],
      "name": "symbol",
      "outputs": [
        {
          "internalType": "string",
          "name": "",
          "type": "string"
        }
      ],
      "stateMutability": "view",
      "type": "function"
    },
    {
      "inputs": [
        {
          "internalType": "uint256",
          "name": "tokenId",
          "type": "uint256"
        }
      ],
      "name": "tokenURI",
      "outputs": [
        {
          "internalType": "string",
          "name": "",
          "type": "string"
        }
      ],
      "stateMutability": "view",
      "type": "function"
    },
    {
      "inputs": [
        {
          "internalType": "address",
          "name": "from",
          "type": "address"
        },
        {
          "internalType": "address",
          "name": "to",
          "type": "address"
        },
        {
          "internalType": "uint256",
          "name": "tokenId",
          "type": "uint256"
        }
      ],
      "name": "transferFrom",
      "outputs": [],
      "stateMutability": "nonpayable",
      "type": "function"
    }
  ],
  "bytecode": "0x608060405260006007553480156200001657600080fd5b506040516200199d3803806200199d83398101604081905262000039916200017f565b604080518082018252601381527f4d656e74616c204865616c746820546f6b656e0000000000000000000000000060208083019182528351808501909452600384526213521560ea1b9084015281519192916200009991600091620000d9565b508051620000af906001906020840190620000d9565b5050600880546001600160a01b0319166001600160a01b03939093169290921790915550620001ec565b828054620000e790620001af565b90600052602060002090601f0160209004810192826200010b576000855562000156565b82601f106200012657805160ff191683800117855562000156565b8280016001018555821562000156579182015b828111156200015657825182559160200191906001019062000139565b506200016492915062000168565b5090565b5b8082111562000164576000815560010162000169565b60006020828403121562000191578081fd5b81516001600160a01b0381168114620001a8578182fd5b9392505050565b600181811c90821680620001c457607f821691505b60208210811415620001e657634e487b7160e01b600052602260045260246000fd5b50919050565b6117a180620001fc6000396000f3fe6080604052600436106100e85760003560e01c80636352211e1161008a578063a22cb46511610059578063a22cb46514610269578063b88d4fde14610289578063c87b56dd146102a9578063e985e9c5146102c957600080fd5b80636352211e146101ff57806370a082311461021f57806378a895671461023f57806395d89b411461025457600080fd5b8063095ea7b3116100c6578063095ea7b31461017c57806323b872dd1461019e57806342842e0e146101be57806345576f94146101de57600080fd5b806301ffc9a7146100ed57806306fdde0314610122578063081812fc14610144575b600080fd5b3480156100f957600080fd5b5061010d610108366004611453565b610312565b60405190151581526020015b60405180910390f35b34801561012e57600080fd5b50610137610364565b6040516101199190611581565b34801561015057600080fd5b5061016461015f3660046114d1565b6103f6565b6040516001600160a01b039091168152602001610119565b34801561018857600080fd5b5061019c61019736600461142a565b610483565b005b3480156101aa57600080fd5b5061019c6101b936600461133c565b610599565b3480156101ca57600080fd5b5061019c6101d936600461133c565b6105ca565b6101f16101ec36600461148b565b6105e5565b604051908152602001610119565b34801561020b57600080fd5b5061016461021a3660046114d1565b61062e565b34801561022b57600080fd5b506101f161023a3660046112f0565b6106a5565b34801561024b57600080fd5b506007546101f1565b34801561026057600080fd5b5061013761072c565b34801561027557600080fd5b5061019c6102843660046113f0565b61073b565b34801561029557600080fd5b5061019c6102a4366004611377565b61074a565b3480156102b557600080fd5b506101376102c43660046114d1565b610782565b3480156102d557600080fd5b5061010d6102e436600461130a565b6001600160a01b03918216600090815260056020908152604080832093909416825291909152205460ff1690565b60006001600160e01b031982166380ac58cd60e01b148061034357506001600160e01b03198216635b5e139f60e01b145b8061035e57506301ffc9a760e01b6001600160e01b03198316145b92915050565b606060008054610373906116a6565b80601f016020809104026020016040519081016040528092919081815260200182805461039f906116a6565b80156103ec5780601f106103c1576101008083540402835291602001916103ec565b820191906000526020600020905b8154815290600101906020018083116103cf57829003601f168201915b5050505050905090565b6000610401826108f9565b6104675760405162461bcd60e51b815260206004820152602c60248201527f4552433732313a20617070726f76656420717565727920666f72206e6f6e657860448201526b34b9ba32b73a103a37b5b2b760a11b60648201526084015b60405180910390fd5b506000908152600460205260409020546001600160a01b031690565b600061048e8261062e565b9050806001600160a01b0316836001600160a01b031614156104fc5760405162461bcd60e51b815260206004820152602160248201527f4552433732313a20617070726f76616c20746f2063757272656e74206f776e656044820152603960f91b606482015260840161045e565b336001600160a01b0382161480610518575061051881336102e4565b61058a5760405162461bcd60e51b815260206004820152603860248201527f4552433732313a20617070726f76652063616c6c6572206973206e6f74206f7760448201527f6e6572206e6f7220617070726f76656420666f7220616c6c0000000000000000606482015260840161045e565b6105948383610916565b505050565b6105a33382610984565b6105bf5760405162461bcd60e51b815260040161045e906115e6565b610594838383610a6a565b6105948383836040518060200160405280600081525061074a565b6000806001600760008282546105fb9190611637565b925050819055905061060d3382610c06565b6106178184610d39565b60085461035e906001600160a01b0316600161073b565b6000818152600260205260408120546001600160a01b03168061035e5760405162461bcd60e51b815260206004820152602960248201527f4552433732313a206f776e657220717565727920666f72206e6f6e657869737460448201526832b73a103a37b5b2b760b91b606482015260840161045e565b60006001600160a01b0382166107105760405162461bcd60e51b815260206004820152602a60248201527f4552433732313a2062616c616e636520717565727920666f7220746865207a65604482015269726f206164647265737360b01b606482015260840161045e565b506001600160a01b031660009081526003602052604090205490565b606060018054610373906116a6565b610746338383610dc4565b5050565b6107543383610984565b6107705760405162461bcd60e51b815260040161045e906115e6565b61077c84848484610e93565b50505050565b606061078d826108f9565b6107f35760405162461bcd60e51b815260206004820152603160248201527f45524337323155524953746f726167653a2055524920717565727920666f72206044820152703737b732bc34b9ba32b73a103a37b5b2b760791b606482015260840161045e565b6000828152600660205260408120805461080c906116a6565b80601f0160208091040260200160405190810160405280929190818152602001828054610838906116a6565b80156108855780601f1061085a57610100808354040283529160200191610885565b820191906000526020600020905b81548152906001019060200180831161086857829003601f168201915b5050505050905060006108a360408051602081019091526000815290565b90508051600014156108b6575092915050565b8151156108e85780826040516020016108d0929190611515565b60405160208183030381529060405292505050919050565b6108f184610ec6565b949350505050565b6000908152600260205260409020546001600160a01b0316151590565b600081815260046020526040902080546001600160a01b0319166001600160a01b038416908117909155819061094b8261062e565b6001600160a01b03167f8c5be1e5ebec7d5bd14f71427d1e84f3dd0314c0f7b2291e5b200ac8c7c3b92560405160405180910390a45050565b600061098f826108f9565b6109f05760405162461bcd60e51b815260206004820152602c60248201527f4552433732313a206f70657261746f7220717565727920666f72206e6f6e657860448201526b34b9ba32b73a103a37b5b2b760a11b606482015260840161045e565b60006109fb8361062e565b9050806001600160a01b0316846001600160a01b03161480610a365750836001600160a01b0316610a2b846103f6565b6001600160a01b0316145b806108f157506001600160a01b0380821660009081526005602090815260408083209388168352929052205460ff166108f1565b826001600160a01b0316610a7d8261062e565b6001600160a01b031614610ae15760405162461bcd60e51b815260206004820152602560248201527f4552433732313a207472616e736665722066726f6d20696e636f72726563742060448201526437bbb732b960d91b606482015260840161045e565b6001600160a01b038216610b435760405162461bcd60e51b8152602060048201526024808201527f4552433732313a207472616e7366657220746f20746865207a65726f206164646044820152637265737360e01b606482015260840161045e565b610b4e600082610916565b6001600160a01b0383166000908152600360205260408120805460019290610b77908490611663565b90915550506001600160a01b0382166000908152600360205260408120805460019290610ba5908490611637565b909155505060008181526002602052604080822080546001600160a01b0319166001600160a01b0386811691821790925591518493918716917fddf252ad1be2c89b69c2b068fc378daa952ba7f163c4a11628f55a4df523b3ef91a4505050565b6001600160a01b038216610c5c5760405162461bcd60e51b815260206004820181905260248201527f4552433732313a206d696e7420746f20746865207a65726f2061646472657373604482015260640161045e565b610c65816108f9565b15610cb25760405162461bcd60e51b815260206004820152601c60248201527f4552433732313a20746f6b656e20616c7265616479206d696e74656400000000604482015260640161045e565b6001600160a01b0382166000908152600360205260408120805460019290610cdb908490611637565b909155505060008181526002602052604080822080546001600160a01b0319166001600160a01b03861690811790915590518392907fddf252ad1be2c89b69c2b068fc378daa952ba7f163c4a11628f55a4df523b3ef908290a45050565b610d42826108f9565b610da55760405162461bcd60e51b815260206004820152602e60248201527f45524337323155524953746f726167653a2055524920736574206f66206e6f6e60448201526d32bc34b9ba32b73a103a37b5b2b760911b606482015260840161045e565b60008281526006602090815260409091208251610594928401906111c5565b816001600160a01b0316836001600160a01b03161415610e265760405162461bcd60e51b815260206004820152601960248201527f4552433732313a20617070726f766520746f2063616c6c657200000000000000604482015260640161045e565b6001600160a01b03838116600081815260056020908152604080832094871680845294825291829020805460ff191686151590811790915591519182527f17307eab39ab6107e8899845ad3d59bd9653f200f220920489ca2b5937696c31910160405180910390a3505050565b610e9e848484610a6a565b610eaa84848484610f9e565b61077c5760405162461bcd60e51b815260040161045e90611594565b6060610ed1826108f9565b610f355760405162461bcd60e51b815260206004820152602f60248201527f4552433732314d657461646174613a2055524920717565727920666f72206e6f60448201526e3732bc34b9ba32b73a103a37b5b2b760891b606482015260840161045e565b6000610f4c60408051602081019091526000815290565b90506000815111610f6c5760405180602001604052806000815250610f97565b80610f76846110ab565b604051602001610f87929190611515565b6040516020818303038152906040525b9392505050565b60006001600160a01b0384163b156110a057604051630a85bd0160e11b81526001600160a01b0385169063150b7a0290610fe2903390899088908890600401611544565b602060405180830381600087803b158015610ffc57600080fd5b505af192505050801561102c575060408051601f3d908101601f191682019092526110299181019061146f565b60015b611086573d80801561105a576040519150601f19603f3d011682016040523d82523d6000602084013e61105f565b606091505b50805161107e5760405162461bcd60e51b815260040161045e90611594565b805181602001fd5b6001600160e01b031916630a85bd0160e11b1490506108f1565b506001949350505050565b6060816110cf5750506040805180820190915260018152600360fc1b602082015290565b8160005b81156110f957806110e3816116e1565b91506110f29050600a8361164f565b91506110d3565b60008167ffffffffffffffff81111561112257634e487b7160e01b600052604160045260246000fd5b6040519080825280601f01601f19166020018201604052801561114c576020820181803683370190505b5090505b84156108f157611161600183611663565b915061116e600a866116fc565b611179906030611637565b60f81b81838151811061119c57634e487b7160e01b600052603260045260246000fd5b60200101906001600160f81b031916908160001a9053506111be600a8661164f565b9450611150565b8280546111d1906116a6565b90600052602060002090601f0160209004810192826111f35760008555611239565b82601f1061120c57805160ff1916838001178555611239565b82800160010185558215611239579182015b8281111561123957825182559160200191906001019061121e565b50611245929150611249565b5090565b5b80821115611245576000815560010161124a565b600067ffffffffffffffff808411156112795761127961173c565b604051601f8501601f19908116603f011681019082821181831017156112a1576112a161173c565b816040528093508581528686860111156112ba57600080fd5b858560208301376000602087830101525050509392505050565b80356001600160a01b03811681146112eb57600080fd5b919050565b600060208284031215611301578081fd5b610f97826112d4565b6000806040838503121561131c578081fd5b611325836112d4565b9150611333602084016112d4565b90509250929050565b600080600060608486031215611350578081fd5b611359846112d4565b9250611367602085016112d4565b9150604084013590509250925092565b6000806000806080858703121561138c578081fd5b611395856112d4565b93506113a3602086016112d4565b925060408501359150606085013567ffffffffffffffff8111156113c5578182fd5b8501601f810187136113d5578182fd5b6113e48782356020840161125e565b91505092959194509250565b60008060408385031215611402578182fd5b61140b836112d4565b91506020830135801515811461141f578182fd5b809150509250929050565b6000806040838503121561143c578182fd5b611445836112d4565b946020939093013593505050565b600060208284031215611464578081fd5b8135610f9781611752565b600060208284031215611480578081fd5b8151610f9781611752565b60006020828403121561149c578081fd5b813567ffffffffffffffff8111156114b2578182fd5b8201601f810184136114c2578182fd5b6108f18482356020840161125e565b6000602082840312156114e2578081fd5b5035919050565b6000815180845261150181602086016020860161167a565b601f01601f19169290920160200192915050565b6000835161152781846020880161167a565b83519083019061153b81836020880161167a565b01949350505050565b6001600160a01b0385811682528416602082015260408101839052608060608201819052600090611577908301846114e9565b9695505050505050565b602081526000610f9760208301846114e9565b60208082526032908201527f4552433732313a207472616e7366657220746f206e6f6e20455243373231526560408201527131b2b4bb32b91034b6b83632b6b2b73a32b960711b606082015260800190565b60208082526031908201527f4552433732313a207472616e736665722063616c6c6572206973206e6f74206f6040820152701ddb995c881b9bdc88185c1c1c9bdd9959607a1b606082015260800190565b6000821982111561164a5761164a611710565b500190565b60008261165e5761165e611726565b500490565b60008282101561167557611675611710565b500390565b60005b8381101561169557818101518382015260200161167d565b8381111561077c5750506000910152565b600181811c908216806116ba57607f821691505b602082108114156116db57634e487b7160e01b600052602260045260246000fd5b50919050565b60006000198214156116f5576116f5611710565b5060010190565b60008261170b5761170b611726565b500690565b634e487b7160e01b600052601160045260246000fd5b634e487b7160e01b600052601260045260246000fd5b634e487b7160e01b600052604160045260246000fd5b6001600160e01b03198116811461176857600080fd5b5056fea2646970667358221220f9d8a0fad23e7ba74d88b7f0b7c3139419525e10c18cc026fc6dd2160639672364736f6c63430008040033",
  "linkReferences": {},
  "deployedLinkReferences": {}
}