{
  "_format": "hh-sol-artifact-1",
  "contractName": "MentalHealthMarket",
  "sourceName": "contracts/Market.sol",
  "abi": [
    {
      "inputs": [],
      "stateMutability": "nonpayable",
      "type": "constructor"
    },
    {
      "anonymous": false,
      "inputs": [
        {
          "indexed": false,
          "internalType": "address",
          "name": "nftContract",
          "type": "address"
        },
        {
          "indexed": false,
          "internalType": "uint256",
          "name": "nftTokenId",
          "type": "uint256"
        },
        {
          "indexed": false,
          "internalType": "uint256",
          "name": "apptId",
          "type": "uint256"
        },
        {
          "indexed": false,
          "internalType": "address",
          "name": "providerWallet",
          "type": "address"
        },
        {
          "indexed": false,
          "internalType": "uint256",
          "name": "epochTime",
          "type": "uint256"
        },
        {
          "indexed": false,
          "internalType": "uint256",
          "name": "appointmentType",
          "type": "uint256"
        },
        {
          "indexed": false,
          "internalType": "uint256",
          "name": "fee",
          "type": "uint256"
        },
        {
          "indexed": false,
          "internalType": "bool",
          "name": "scheduled",
          "type": "bool"
        }
      ],
      "name": "ApptListingCreated",
      "type": "event"
    },
    {
      "inputs": [],
      "name": "_appointmentId",
      "outputs": [
        {
          "internalType": "uint256",
          "name": "_value",
          "type": "uint256"
        }
      ],
      "stateMutability": "view",
      "type": "function"
    },
    {
      "inputs": [],
      "name": "_appointmentsCreated",
      "outputs": [
        {
          "internalType": "uint256",
          "name": "_value",
          "type": "uint256"
        }
      ],
      "stateMutability": "view",
      "type": "function"
    },
    {
      "inputs": [],
      "name": "_appointmentsScheduled",
      "outputs": [
        {
          "internalType": "uint256",
          "name": "_value",
          "type": "uint256"
        }
      ],
      "stateMutability": "view",
      "type": "function"
    },
    {
      "inputs": [
        {
          "internalType": "address",
          "name": "nftContract",
          "type": "address"
        },
        {
          "internalType": "uint256",
          "name": "apptId",
          "type": "uint256"
        }
      ],
      "name": "createMarketSale",
      "outputs": [],
      "stateMutability": "payable",
      "type": "function"
    },
    {
      "inputs": [
        {
          "internalType": "address",
          "name": "nftContract",
          "type": "address"
        },
        {
          "internalType": "uint256",
          "name": "nftTokenId",
          "type": "uint256"
        },
        {
          "internalType": "uint256",
          "name": "epochTime",
          "type": "uint256"
        },
        {
          "internalType": "uint256",
          "name": "appointmentType",
          "type": "uint256"
        },
        {
          "internalType": "uint256",
          "name": "fee",
          "type": "uint256"
        },
        {
          "internalType": "address",
          "name": "addressFromForm",
          "type": "address"
        }
      ],
      "name": "createNewListing",
      "outputs": [],
      "stateMutability": "payable",
      "type": "function"
    },
    {
      "inputs": [],
      "name": "fetchMyScheduledAppointments",
      "outputs": [
        {
          "components": [
            {
              "internalType": "address",
              "name": "nftContract",
              "type": "address"
            },
            {
              "internalType": "uint256",
              "name": "nftTokenId",
              "type": "uint256"
            },
            {
              "internalType": "uint256",
              "name": "apptId",
              "type": "uint256"
            },
            {
              "internalType": "address payable",
              "name": "providerWallet",
              "type": "address"
            },
            {
              "internalType": "uint256",
              "name": "epochTime",
              "type": "uint256"
            },
            {
              "internalType": "uint256",
              "name": "appointmentType",
              "type": "uint256"
            },
            {
              "internalType": "address payable",
              "name": "patientWallet",
              "type": "address"
            },
            {
              "internalType": "uint256",
              "name": "fee",
              "type": "uint256"
            },
            {
              "internalType": "bool",
              "name": "scheduled",
              "type": "bool"
            }
          ],
          "internalType": "struct MentalHealthMarket.Appointment[]",
          "name": "",
          "type": "tuple[]"
        }
      ],
      "stateMutability": "view",
      "type": "function"
    },
    {
      "inputs": [],
      "name": "fetchProviderListingOfAppointments",
      "outputs": [
        {
          "components": [
            {
              "internalType": "address",
              "name": "nftContract",
              "type": "address"
            },
            {
              "internalType": "uint256",
              "name": "nftTokenId",
              "type": "uint256"
            },
            {
              "internalType": "uint256",
              "name": "apptId",
              "type": "uint256"
            },
            {
              "internalType": "address payable",
              "name": "providerWallet",
              "type": "address"
            },
            {
              "internalType": "uint256",
              "name": "epochTime",
              "type": "uint256"
            },
            {
              "internalType": "uint256",
              "name": "appointmentType",
              "type": "uint256"
            },
            {
              "internalType": "address payable",
              "name": "patientWallet",
              "type": "address"
            },
            {
              "internalType": "uint256",
              "name": "fee",
              "type": "uint256"
            },
            {
              "internalType": "bool",
              "name": "scheduled",
              "type": "bool"
            }
          ],
          "internalType": "struct MentalHealthMarket.Appointment[]",
          "name": "",
          "type": "tuple[]"
        }
      ],
      "stateMutability": "view",
      "type": "function"
    },
    {
      "inputs": [],
      "name": "getAllAppts",
      "outputs": [
        {
          "components": [
            {
              "internalType": "address",
              "name": "nftContract",
              "type": "address"
            },
            {
              "internalType": "uint256",
              "name": "nftTokenId",
              "type": "uint256"
            },
            {
              "internalType": "uint256",
              "name": "apptId",
              "type": "uint256"
            },
            {
              "internalType": "address payable",
              "name": "providerWallet",
              "type": "address"
            },
            {
              "internalType": "uint256",
              "name": "epochTime",
              "type": "uint256"
            },
            {
              "internalType": "uint256",
              "name": "appointmentType",
              "type": "uint256"
            },
            {
              "internalType": "address payable",
              "name": "patientWallet",
              "type": "address"
            },
            {
              "internalType": "uint256",
              "name": "fee",
              "type": "uint256"
            },
            {
              "internalType": "bool",
              "name": "scheduled",
              "type": "bool"
            }
          ],
          "internalType": "struct MentalHealthMarket.Appointment[]",
          "name": "",
          "type": "tuple[]"
        }
      ],
      "stateMutability": "view",
      "type": "function"
    },
    {
      "inputs": [],
      "name": "getListedAppointments",
      "outputs": [
        {
          "components": [
            {
              "internalType": "address",
              "name": "nftContract",
              "type": "address"
            },
            {
              "internalType": "uint256",
              "name": "nftTokenId",
              "type": "uint256"
            },
            {
              "internalType": "uint256",
              "name": "apptId",
              "type": "uint256"
            },
            {
              "internalType": "address payable",
              "name": "providerWallet",
              "type": "address"
            },
            {
              "internalType": "uint256",
              "name": "epochTime",
              "type": "uint256"
            },
            {
              "internalType": "uint256",
              "name": "appointmentType",
              "type": "uint256"
            },
            {
              "internalType": "address payable",
              "name": "patientWallet",
              "type": "address"
            },
            {
              "internalType": "uint256",
              "name": "fee",
              "type": "uint256"
            },
            {
              "internalType": "bool",
              "name": "scheduled",
              "type": "bool"
            }
          ],
          "internalType": "struct MentalHealthMarket.Appointment[]",
          "name": "",
          "type": "tuple[]"
        }
      ],
      "stateMutability": "view",
      "type": "function"
    },
    {
      "inputs": [],
      "name": "getListingPrice",
      "outputs": [
        {
          "internalType": "uint256",
          "name": "",
          "type": "uint256"
        }
      ],
      "stateMutability": "view",
      "type": "function"
    }
  ],
  "bytecode": "0x6080604052655af3107a400060055534801561001a57600080fd5b506001600055600480546001600160a01b03191633179055610fee806100416000396000f3fe6080604052600436106100905760003560e01c80635b35bc5f116100595780635b35bc5f146101225780635e479b30146101375780638f6a8dd01461014c578063c23b139e14610163578063fcd0719e1461017657600080fd5b8062f086f3146100955780630ceffa27146100bf57806312e85585146100e1578063314ded78146100f657806335bedfe01461010b575b600080fd5b3480156100a157600080fd5b506001546100ac9081565b6040519081526020015b60405180910390f35b3480156100cb57600080fd5b506100d461018b565b6040516100b69190610e9a565b3480156100ed57600080fd5b506005546100ac565b34801561010257600080fd5b506100d461039c565b34801561011757600080fd5b506003546100ac9081565b34801561012e57600080fd5b506100d461056a565b61014a610145366004610e43565b6106f2565b005b34801561015857600080fd5b506002546100ac9081565b61014a610171366004610e1a565b610a57565b34801561018257600080fd5b506100d4610c74565b6060600061019860025490565b905060008060005b838110156101fb5733600660006101b8846001610f58565b81526020810191909152604001600020600601546001600160a01b031614156101e9576101e6600184610f58565b92505b806101f381610f87565b9150506101a0565b5060008267ffffffffffffffff81111561022557634e487b7160e01b600052604160045260246000fd5b60405190808252806020026020018201604052801561025e57816020015b61024b610d95565b8152602001906001900390816102435790505b50905060008415610394573360066000610279846001610f58565b81526020810191909152604001600020600601546001600160a01b0316141561038b5760006006816102ac846001610f58565b81526020808201929092526040908101600090812060029081015480835260068086529284902084516101208101865281546001600160a01b039081168252600183015497820197909752928101549483019490945260038401548516606083015260048401546080830152600584015460a08301529183015490931660c0840152600782015460e0840152600882015460ff161515610100840152855190935090919085908790811061037057634e487b7160e01b600052603260045260246000fd5b6020908102919091010152610386600186610f58565b945050505b50949350505050565b505050505090565b606060006103a960025490565b905060006103b660035490565b6002546103c39190610f70565b90506000808267ffffffffffffffff8111156103ef57634e487b7160e01b600052604160045260246000fd5b60405190808252806020026020018201604052801561042857816020015b610415610d95565b81526020019060019003908161040d5790505b50905060005b8481101561038b576000600681610446846001610f58565b81526020810191909152604001600020600601546001600160a01b03161415610558576000600681610479846001610f58565b81526020808201929092526040908101600090812060029081015480835260068086529284902084516101208101865281546001600160a01b039081168252600183015497820197909752928101549483019490945260038401548516606083015260048401546080830152600584015460a08301529183015490931660c0840152600782015460e0840152600882015460ff161515610100840152855190935090919085908790811061053d57634e487b7160e01b600052603260045260246000fd5b6020908102919091010152610553600186610f58565b945050505b8061056281610f87565b91505061042e565b6060600061057760025490565b90506000808267ffffffffffffffff8111156105a357634e487b7160e01b600052604160045260246000fd5b6040519080825280602002602001820160405280156105dc57816020015b6105c9610d95565b8152602001906001900390816105c15790505b50905060005b838110156106ea5760006006816105fa846001610f58565b81526020808201929092526040908101600090812060029081015480835260068086529284902084516101208101865281546001600160a01b039081168252600183015497820197909752928101549483019490945260038401548516606083015260048401546080830152600584015460a08301529183015490931660c0840152600782015460e0840152600882015460ff16151561010084015285519093509091908590879081106106be57634e487b7160e01b600052603260045260246000fd5b60209081029190910101526106d4600186610f58565b94505050806106e281610f87565b9150506105e2565b509392505050565b6002600054141561074a5760405162461bcd60e51b815260206004820152601f60248201527f5265656e7472616e637947756172643a207265656e7472616e742063616c6c0060448201526064015b60405180910390fd5b6002600055816107925760405162461bcd60e51b81526020600482015260136024820152724665652063616e206e6f74206265207a65726f60681b6044820152606401610741565b60055434146107e35760405162461bcd60e51b815260206004820152601e60248201527f5072696365206d75737420657175616c206c697374696e6720707269636500006044820152606401610741565b6107f1600180546001019055565b60006107fc60015490565b9050604051806101200160405280886001600160a01b03168152602001878152602001828152602001836001600160a01b0316815260200186815260200185815260200160006001600160a01b03168152602001848152602001600115158152506006600083815260200190815260200160002060008201518160000160006101000a8154816001600160a01b0302191690836001600160a01b03160217905550602082015181600101556040820151816002015560608201518160030160006101000a8154816001600160a01b0302191690836001600160a01b031602179055506080820151816004015560a0820151816005015560c08201518160060160006101000a8154816001600160a01b0302191690836001600160a01b0316021790555060e082015181600701556101008201518160080160006101000a81548160ff021916908315150217905550905050866001600160a01b03166323b872dd3330896040518463ffffffff1660e01b815260040161099c939291906001600160a01b039384168152919092166020820152604081019190915260600190565b600060405180830381600087803b1580156109b657600080fd5b505af11580156109ca573d6000803e3d6000fd5b505050506109dc600280546001019055565b604080516001600160a01b0389168152602081018890529081018290523360608201526080810186905260a0810185905260c08101849052600060e08201527f3c1c0493b1cc0d345c7e3f62561379a1dd71718c36978342741f70ef6bda17d6906101000160405180910390a1505060016000555050505050565b60026000541415610aaa5760405162461bcd60e51b815260206004820152601f60248201527f5265656e7472616e637947756172643a207265656e7472616e742063616c6c006044820152606401610741565b600260009081558181526006602052604090206007810154600190910154348214610b3d5760405162461bcd60e51b815260206004820152603b60248201527f506c65617365207375626d6974207468652070726f766964657273206665652060448201527f6265666f72652070757263686173696e672074686520746f6b656e00000000006064820152608401610741565b6000838152600660205260408082206003015490516001600160a01b03909116913480156108fc02929091818181858888f19350505050158015610b85573d6000803e3d6000fd5b506040516323b872dd60e01b8152306004820152336024820152604481018290526001600160a01b038516906323b872dd90606401600060405180830381600087803b158015610bd457600080fd5b505af1158015610be8573d6000803e3d6000fd5b505050600084815260066020819052604090912090810180546001600160a01b03191633179055600801805460ff1916600117905550610c2c600380546001019055565b6004546005546040516001600160a01b039092169181156108fc0291906000818181858888f19350505050158015610c68573d6000803e3d6000fd5b50506001600055505050565b60606000610c8160025490565b905060008060005b83811015610ce4573360066000610ca1846001610f58565b81526020810191909152604001600020600301546001600160a01b03161415610cd257610ccf600184610f58565b92505b80610cdc81610f87565b915050610c89565b5060008267ffffffffffffffff811115610d0e57634e487b7160e01b600052604160045260246000fd5b604051908082528060200260200182016040528015610d4757816020015b610d34610d95565b815260200190600190039081610d2c5790505b50905060008415610394573360066000610d62846001610f58565b81526020810191909152604001600020600301546001600160a01b0316141561038b5760006006816102ac846001610f58565b60405180610120016040528060006001600160a01b03168152602001600081526020016000815260200160006001600160a01b03168152602001600081526020016000815260200160006001600160a01b03168152602001600081526020016000151581525090565b80356001600160a01b0381168114610e1557600080fd5b919050565b60008060408385031215610e2c578182fd5b610e3583610dfe565b946020939093013593505050565b60008060008060008060c08789031215610e5b578182fd5b610e6487610dfe565b955060208701359450604087013593506060870135925060808701359150610e8e60a08801610dfe565b90509295509295509295565b602080825282518282018190526000919060409081850190868401855b82811015610f4b57815180516001600160a01b0316855286810151878601528581015186860152606080820151610ef8828801826001600160a01b03169052565b50506080818101519086015260a0808201519086015260c0808201516001600160a01b03169086015260e08082015190860152610100908101511515908501526101209093019290850190600101610eb7565b5091979650505050505050565b60008219821115610f6b57610f6b610fa2565b500190565b600082821015610f8257610f82610fa2565b500390565b6000600019821415610f9b57610f9b610fa2565b5060010190565b634e487b7160e01b600052601160045260246000fdfea2646970667358221220a7bdff67b6e30e0280fd3192c69823c482597e4d35061d15efb33e8ede70808564736f6c63430008040033",
  "linkReferences": {},
  "deployedLinkReferences": {}
}