{
  "_format": "hh-sol-artifact-1",
  "contractName": "Debug",
  "sourceName": "contracts/Debug.sol",
  "abi": [
    {
      "inputs": [],
      "stateMutability": "nonpayable",
      "type": "constructor"
    },
    {
      "inputs": [],
      "name": "_appointmentId",
      "outputs": [
        {
          "internalType": "uint256",
          "name": "_value",
          "type": "uint256"
        }
      ],
      "stateMutability": "view",
      "type": "function"
    },
    {
      "inputs": [],
      "name": "createNewListing",
      "outputs": [],
      "stateMutability": "payable",
      "type": "function"
    },
    {
      "inputs": [],
      "name": "getAllAppts",
      "outputs": [
        {
          "components": [
            {
              "internalType": "address",
              "name": "nftContract",
              "type": "address"
            }
          ],
          "internalType": "struct Debug.Appointment[]",
          "name": "",
          "type": "tuple[]"
        }
      ],
      "stateMutability": "view",
      "type": "function"
    },
    {
      "inputs": [],
      "name": "getListingPrice",
      "outputs": [
        {
          "internalType": "uint256",
          "name": "",
          "type": "uint256"
        }
      ],
      "stateMutability": "view",
      "type": "function"
    }
  ],
  "bytecode": "0x6080604052655af3107a400060035534801561001a57600080fd5b506001600055600280546001600160a01b03191633179055610344806100416000396000f3fe60806040526004361061003e5760003560e01c8062f086f31461004357806312e855851461006d5780635b35bc5f14610082578063b2c40918146100a4575b600080fd5b34801561004f57600080fd5b5060015461005a9081565b6040519081526020015b60405180910390f35b34801561007957600080fd5b5060035461005a565b34801561008e57600080fd5b506100976100ae565b6040516100649190610277565b6100ac6101c5565b005b606060006100bb60015490565b90506000808267ffffffffffffffff8111156100e757634e487b7160e01b600052604160045260246000fd5b60405190808252806020026020018201604052801561012757816020015b6040805160208101909152600081528152602001906001900390816101055790505b50905060005b838110156101bd5760006004816101458460016102c5565b81526020808201929092526040908101600020815192830190915280546001600160a01b03168252845190925084908690811061019257634e487b7160e01b600052603260045260246000fd5b60209081029190910101526101a86001856102c5565b935050806101b5816102dd565b91505061012d565b509392505050565b6002600054141561021c5760405162461bcd60e51b815260206004820152601f60248201527f5265656e7472616e637947756172643a207265656e7472616e742063616c6c00604482015260640160405180910390fd5b600260005561022f600180546001019055565b600061023a60015490565b6040805160208082018352338252600093845260049052908220905181546001600160a01b0319166001600160a01b039091161790556001905550565b6020808252825182820181905260009190848201906040850190845b818110156102b9578351516001600160a01b031683529284019291840191600101610293565b50909695505050505050565b600082198211156102d8576102d86102f8565b500190565b60006000198214156102f1576102f16102f8565b5060010190565b634e487b7160e01b600052601160045260246000fdfea26469706673582212201fbcbd78d40490061525659b9ace3088703d344eadbadf6c7c477fd9b3b6786064736f6c63430008040033",
  "linkReferences": {},
  "deployedLinkReferences": {}
}